:020000040800F2
:100000000050002069110008551000085B1000081E
:1000100061100008671000086D1000080000000063
:100020000000000000000000000000007310000845
:100030007F100008000000008B10000897100008D7
:10004000B1110008B1110008B1110008B111000888
:10005000B1110008B1110008B1110008B111000878
:10006000B1110008B1110008B1110008B111000868
:10007000B1110008B1110008B1110008B111000858
:10008000B1110008B1110008B1110008B111000848
:10009000B1110008B1110008B1110008B111000838
:1000A000B1110008B1110008B1110008B111000828
:1000B000A5100008B1110008B1110008B111000825
:1000C000B1110008B1110008B1110008B111000808
:1000D000B1110008B1110008B9100008B1110008F1
:1000E000B1110008B1110008B111000800000000B2
:1000F0000000000000000000000000000000000000
:0C01000000000000000000005FF808F1A3
:10010C0010B5054C237833B9044B13B10448AFF345
:10011C0000800123237010BD680000200000000047
:10012C004C34000808B5034B1BB103490348AFF32B
:10013C00008008BD000000006C0000204C3400085A
:10014C0080B582B000AF00237B608EE04B4A7B68A9
:10015C00134419784A4A7B6813440A461A70494A70
:10016C007B6813441978454A7B6813440A461A7015
:10017C00454A7B6852F8232044497B6831F8133098
:10018C001946104601F0B4FB034619463D4A7B68FC
:10019C0013440A461A703A4A7B6813441A78374952
:1001AC007B680B441B789A425CD1344A7B681344BD
:1001BC001A7834497B680B441B789A4252D1344AE2
:1001CC007B6813441A782F497B680B441B789A423E
:1001DC002ED02C4A7B68134419782D4A7B68134423
:1001EC000A461A702A4A7B6813441B78002B19D1D3
:1001FC00284A7B684FF47A7142F82310254A7B68B1
:10020C0052F82330244A82FB03129210DB17D21AC5
:10021C0020497B6841F82320204A7B68012142F861
:10022C0023101FE01E4A7B68002142F8231019E0BE
:10023C00174A7B6813441B78002B13D1154A7B6833
:10024C0052F823305A1E13497B6841F82320114A77
:10025C007B6852F82330002B04D1114A7B680121B2
:10026C0042F823107B6801337B607B68032B7FF79C
:10027C006DAF00BF00BF0837BD4680BD2000002019
:10028C00240000201C000020000000201000002092
:10029C0018000020A4000020676666668400002019
:1002AC009400002080B483B000AF78607B68002B92
:1002BC0002DB7B68042B01DD00230DE0094A7B681F
:1002CC0052F82330012B06D1064A7B68002142F8F4
:1002DC002310012300E0002318460C37BD4680BCD8
:1002EC00704700BF8400002080B483B000AF7860FA
:1002FC007B68002B02DB7B68042B01DD002308E00C
:10030C00064A7B6852F82330012B01D1012300E00F
:10031C00002318460C37BD4680BC70479400002063
:10032C0080B483B000AF78607B68022B15D07B68FB
:10033C00022B18DC7B68002B03D07B68012B06D0CA
:10034C0011E0104B9B6801330E4A93600BE00D4B90
:10035C001B6801330B4A136005E00A4B1B68013321
:10036C00084A136000BF074A7B6852F823305A1CB6
:10037C0004497B6841F8232000BF0C37BD4680BC84
:10038C00704700BF2C00002080B483B000AF7860B1
:10039C007B68022B15D07B68022B18DC7B68002B4A
:1003AC0003D07B68012B06D011E0104B9B68013BFE
:1003BC000E4A93600BE00D4B1B68013B0B4A13601C
:1003CC0005E00A4B1B68013B084A136000BF074A53
:1003DC007B6852F823305A1E04497B6841F823206D
:1003EC0000BF0C37BD4680BC704700BF2C000020FE
:1003FC0080B483B000AF00237B600EE00B4A7B68B7
:10040C0052F823304FF47A7203FB02F208497B68EE
:10041C0041F823207B6801337B607B68022BEDDD88
:10042C0000BF00BF0C37BD4680BC70472C000020BD
:10043C00BC00002080B500AFA74B1B78062B00F248
:10044C00498101A252F823F07104000885040008C8
:10045C00C9040008D7050008E9050008FB050008D9
:10046C00A70600089D4B00221A709D4B00221A70A3
:10047C00994B01221A702DE1FFF7BAFF994800F051
:10048C007FFB0020FFF70EFF0346002B02D0924BA0
:10049C0002221A700020FFF727FF0346002B02D020
:1004AC008D4B05221A700320FFF7FCFE0346002B30
:1004BC0000F00981884B06221A7004E10A210620FB
:1004CC0000F004FE884B1B78032B31D1874B9B69C2
:1004DC00002B1FD0864B1B68002B06D1012000F08F
:1004EC0055FA834B01221A6010E0814B1B68012BDB
:1004FC0006D1022000F04AFA7D4B02221A6005E078
:10050C00032000F043FA7A4B00221A601E210620C9
:10051C0000F0DCFD0020FFF7C5FE0346002B00F0C9
:10052C00D480714B00221A706B4B00221A70CCE0F5
:10053C00704B1B78184600F029FA0020FFF7B2FE2A
:10054C000346002B2CD0684B1B78032B29D801A217
:10055C0052F823F07105000885050008990500087C
:10056C00AF050008634B02221A70634B01221A601C
:10057C005D4B01221A7014E05E4B03221A705E4B25
:10058C0002221A60584B02221A700AE0594B0122BF
:10059C001A70594B00221A60534B03221A7000E058
:1005AC0000BF0120FFF77EFE0346002B02D04A4B12
:1005BC0003221A700220FFF775FE0346002B00F091
:1005CC008480454B04221A707FE04B4B1B68184605
:1005DC00FFF7A6FE404B02221A707BE0464B1B68CD
:1005EC001846FFF7D1FE3C4B02221A7072E0434BC7
:1005FC001B78032B25D801A252F823F0190600080A
:10060C002B0600083D0600084F06000801210120BA
:10061C0000F004F90021012000F000F911E00121A3
:10062C00022000F0FBF80021022000F0F7F808E0AF
:10063C000121032000F0F2F80021032000F0EEF875
:10064C0000BF0020FFF72EFE0346002B1AD02B4BC9
:10065C001B78032B17D801A252F823F07906000857
:10066C00810600088906000893060008234B012226
:10067C001A7008E0214B02221A7004E01F4B002272
:10068C001A7000E000BF0020FFF72EFE0346002B7F
:10069C001DD0114B00221A7019E000F09FF80121B7
:1006AC00032000F0BBF80021032000F0B7F8032072
:1006BC00FFF7F8FD0346002B0BD000F06FF8064B4C
:1006CC0000221A7005E000BF04E000BF02E000BF8A
:1006DC0000E000BF00BF80BDB7000020B5000020C7
:1006EC00B6000020BC000020B800002080010020D3
:1006FC00CC00002028000020C8000020B9000020F9
:10070C0080B584B000AF0346FB71FB79002B02D09F
:10071C00012B16D02BE00023FB600EE0164AFB6881
:10072C0052F82300154AFB6832F8133000221946A0
:10073C0001F0F5F8FB680133FB60FB68012BEDDD84
:10074C0015E00023BB600EE00D4ABB6852F8230095
:10075C000C4ABB6832F813300022194601F0DFF85E
:10076C00BB680133BB60BB68012BEDDD00BF00BF74
:10077C001037BD4680BD00BF400000204C0000205B
:10078C00380000204800002080B500AF0020FFF7A3
:10079C00B7FF0120FFF7B4FF00BF80BD80B500AFED
:1007AC000B4B1B680B4A11880022184601F0B7F856
:1007BC00074B5B68074A51880022184601F0AFF8D6
:1007CC0000224021044801F0AAF800BF80BD00BF00
:1007DC0050000020580000200008014080B500AFF8
:1007EC000B4B1B680B4A11880022184601F097F836
:1007FC00074B5B68074A51880122184601F08FF8B5
:10080C0001224021044801F08AF800BF80BD00BFDE
:10081C0050000020580000200008014080B582B034
:10082C0000AF03460A46FB711346BB71BB79002B24
:10083C0002D0012B4ED09CE0FB79032B00F296806A
:10084C0001A252F823F000BFDD080008650800087B
:10085C008D080008B50800080020FFF751FF474B32
:10086C001B68474A11880122184601F058F8434B7F
:10087C005B68434A51880022184601F050F828E082
:10088C000020FFF73DFF3D4B1B683D4A11880122BC
:10089C00184601F044F8394B5B68394A51880122FB
:1008AC00184601F03CF814E00020FFF729FF334B09
:1008BC001B68334A11880022184601F030F82F4B80
:1008CC005B682F4A51880122184601F028F800E095
:1008DC0000BF4BE0FB79032B4AD801A252F823F05E
:1008EC0075090008FD080008250900084D090008D5
:1008FC000120FFF705FF234B1B68234A11880122B7
:10090C00184601F00CF81F4B5B681F4A51880022F7
:10091C00184601F004F828E00120FFF7F1FE194B0E
:10092C001B68194A11880122184600F0F8FF154B74
:10093C005B68154A51880122184600F0F0FF14E05C
:10094C000120FFF7DDFE0F4B1B680F4A11880022B8
:10095C00184600F0E4FF0B4B5B680B4A51880122F0
:10096C00184600F0DCFF00E000BF01E000BF00E033
:10097C0000BF00BF0837BD4680BD00BF400000204F
:10098C004C000020380000204800002080B582B0C8
:10099C0000AF0346FB71114B9B69002B1AD0104B17
:1009AC001B78002B05D0FFF7EFFE0D4B00221A70C1
:1009BC000CE0FB7901211846FFF730FFFB79002191
:1009CC001846FFF72BFF064B01221A70C821062090
:1009DC0000F07CFB00BF0837BD4680BD80010020C5
:1009EC00D000002080B582B000AF03463960FB71A7
:1009FC00FB79002B02D0012B5AD0B7E05D4B1B7852
:100A0C00032B00F2B08001A252F823F0290A00084F
:100A1C00410A0008670A00088B0A0008FFF7B4FEB9
:100A2C003B681B681946002000F050FB514B01221B
:100A3C001A703CE000210120FFF7F0FE4E4B1B68C2
:100A4C00002B2FD04B4B03221A703B6808331B68CA
:100A5C001946002000F03AFB24E000210220FFF7A9
:100A6C00DDFE454B1B68002B1ED0424B01221A7039
:100A7C003B681B681946002000F028FB14E000219D
:100A8C000320FFF7CBFE3C4B1B68002B0ED0394BE1
:100A9C0002221A703B6804331B681946002000F0D0
:100AAC0015FB03E000BF5EE000BF5CE000BF5AE056
:100ABC00324B1B78032B58D801A252F823F000BFFD
:100ACC00DD0A0008F70A00081D0B0008410B00089E
:100ADC00FFF75AFE3B6808331B681946012000F0EB
:100AEC00F5FA264B03221A703CE001210120FFF796
:100AFC0095FE214B5B68002B2FD0204B03221A70E4
:100B0C003B6808331B681946012000F0DFFA24E02B
:100B1C0001210220FFF782FE174B5B68002B1ED0D1
:100B2C00164B01221A703B681B681946012000F015
:100B3C00CDFA14E001210320FFF770FE0E4B5B6829
:100B4C00002B0ED03B6804331B681946012000F0C3
:100B5C00BDFA0A4B02221A7003E000BF05E000BF89
:100B6C0003E000BF01E000BF00E000BF00BF08379A
:100B7C00BD4680BDB600002080010020B5000020DD
:100B8C0080B582B000AF786079680120FFF72AFF4A
:100B9C0079680020FFF726FF00BF0837BD4680BDEF
:100BAC0080B582B000AF78607B681B68134A9342B3
:100BBC001FD1322301221249124801F02AFF124B95
:100BCC001B785A1CD1B2104A11701A460C4B19786A
:100BDC000E4B99540C4B1B781E2B02D10A4B002246
:100BEC001A700B4B01221A7001220549054801F0BD
:100BFC00A2FF00BF0837BD4680BD00BF00440040C7
:100C0C00B40000201C0100207E01002060010020A7
:100C1C007F01002080B584B000AF00F0C5FA00F071
:100C2C001FF800F0CFF800F057F800F0A1F80848D2
:100C3C0001F0F8FA01220749074801F07CFF074A46
:100C4C003B1D07CA83E80700FFF7F4FBFCE700BF76
:100C5C00D4000020B40000201C01002064340008E3
:100C6C0080B590B000AF07F1180328220021184678
:100C7C0002F0DEFB3B1D00221A605A609A60DA60BB
:100C8C001A610223BB610123BB621023FB620023A8
:100C9C007B6307F11803184600F05AFE0346002B3D
:100CAC0001D000F024F90F237B600023BB600023EC
:100CBC00FB6000233B6100237B613B1D0021184638
:100CCC0001F0C8F80346002B01D000F010F900BF6A
:100CDC004037BD4680BD000080B586B000AF07F13F
:100CEC00080300221A605A609A60DA603B460022C0
:100CFC001A605A601D4B4FF080421A601B4B41F634
:100D0C00FF025A60194B00229A60184B0922DA60D4
:100D1C00164B00221A61154B00229A61134801F000
:100D2C0031FA0346002B01D000F0E1F84FF4805368
:100D3C00BB6007F1080319460C4801F0CDFB0346D4
:100D4C00002B01D000F0D3F800233B6000237B6024
:100D5C003B461946054801F09FFD0346002B01D088
:100D6C0000F0C5F800BF1837BD4680BDD400002088
:100D7C0080B500AF114B124A1A60104B4FF416524B
:100D8C005A600E4B00229A600C4B0022DA600B4B1F
:100D9C0000221A61094B0C225A61084B00229A61FD
:100DAC00064B0022DA61054801F0E6FD0346002BF4
:100DBC0001D000F09CF800BF80BD00BF1C010020DA
:100DCC000044004080B586B000AF07F10803002254
:100DDC001A605A609A60DA60344B9B69334A43F06C
:100DEC0004039361314B9B6903F004037B607B68C4
:100DFC002E4B9B692D4A43F0080393612B4B9B6947
:100E0C0003F008033B603B6800224FF487612848DD
:100E1C0000F085FD00224FF4A061264800F07FFD14
:100E2C001323BB600023FB6002233B6107F1080323
:100E3C001946204800F0D8FB4023BB600223FB601E
:100E4C0002237B6107F1080319461A4800F0CCFB1A
:100E5C000123BB600023FB6002233B6107F1080305
:100E6C001946134800F0C0FB4FF48763BB600123A5
:100E7C00FB6000233B6102237B6107F108031946E9
:100E8C000B4800F0B1FB4FF4A063BB600123FB6087
:100E9C0000233B6102237B6107F1080319460548D7
:100EAC0000F0A2FB00BF1837BD4680BD0010024009
:100EBC00000C01400008014080B584B000AF7860A0
:100ECC007B681B68B3F1804F0DD10023FB6005E0FC
:100EDC00F86800F01BF9FB680133FB60FB68022B20
:100EEC00F6DDFFF72DF900BF1037BD4680BD80B48D
:100EFC0000AF72B600BFFEE780B485B000AF154BF3
:100F0C009B69144A43F001039361124B9B6903F0F4
:100F1C000103BB60BB680F4BDB690E4A43F0805387
:100F2C00D3610C4BDB6903F080537B607B680A4B0D
:100F3C005B68FB60FB6823F0E063FB60FB6843F0DD
:100F4C000073FB60044AFB68536000BF1437BD4656
:100F5C0080BC7047001002400000014080B584B096
:100F6C0000AF78607B681B68B3F1804F13D10C4BDA
:100F7C00DB690B4A43F00103D361094BDB6903F0D6
:100F8C000103FB60FB68002200211C2000F045FAE5
:100F9C001C2000F05EFA00BF1037BD4680BD00BFBC
:100FAC000010024080B588B000AF786007F11003E4
:100FBC0000221A605A609A60DA607B681B681F4ACC
:100FCC00934237D11E4BDB691D4A43F40033D36186
:100FDC001B4BDB6903F40033FB60FB68184B9B690C
:100FEC00174A43F004039361154B9B6903F0040308
:100FFC00BB60BB6804233B6102237B610323FB6161
:10100C0007F1100319460F4800F0EEFA08233B6174
:10101C0000237B610023BB6107F1100319460948CB
:10102C0000F0E2FA00220021262000F0F6F926203A
:10103C0000F00FFA00BF2037BD4680BD00440040D1
:10104C00001002400008014080B400AFFEE780B4FD
:10105C0000AFFEE780B400AFFEE780B400AFFEE760
:10106C0080B400AFFEE780B400AF00BFBD4680BCCB
:10107C00704780B400AF00BFBD4680BC704780B4E1
:10108C0000AF00BFBD4680BC704780B500AF00F01C
:10109C00D1F800BF80BD000080B500AF024801F060
:1010AC0013F900BF80BD00BFD400002080B500AF95
:1010BC00024801F071FD00BF80BD00BF1C01002083
:1010CC0080B400AF00BFBD4680BC704780B483B015
:1010DC0000AF786039603B68094A82FB03129210BA
:1010EC00DB17D21A07497B6841F82320064A7B6834
:1010FC00002142F8231000BF0C37BD4680BC70475E
:10110C00676666668C0100208001002080B483B085
:10111C0000AF78600F4A7B6852F82330002B13DB4A
:10112C000C4A7B6852F823305A1E0A497B6841F8F6
:10113C002320084A7B6852F82330002B04DC064A33
:10114C007B68012142F8231000BF0C37BD4680BCE0
:10115C00704700BF8C010020800100200C480D4915
:10116C000D4A002302E0D458C4500433C4188C42F6
:10117C00F9D30A4A0A4C002301E013600432A2425C
:10118C00FBD3FFF79DFF02F02FF9FFF743FD7047EC
:10119C000000002068000020A03400086800002037
:1011AC009C010020FEE7000080B500AF084B1B68D7
:1011BC00074A43F010031360032000F023F90F20BB
:1011CC0000F008F8FFF798FE0023184680BD00BF1A
:1011DC000020024080B582B000AF7860124B1A68D4
:1011EC00124B1B7819464FF47A73B3FBF1F3B2FB35
:1011FC00F3F3184600F03BF90346002B01D0012312
:10120C000EE07B680F2B0AD8002279684FF0FF3074
:10121C0000F003F9064A7B681360002300E0012309
:10122C0018460837BD4680BD5C00002064000020D5
:10123C006000002080B400AF054B1B781A46054BAC
:10124C001B681344034A136000BFBD4680BC704743
:10125C00640000209801002080B400AF024B1B6892
:10126C001846BD4680BC70479801002080B485B0FC
:10127C0000AF78607B6803F00703FB600C4BDB6806
:10128C00BB60BA684FF6FF031340BB60FB681A02E1
:10129C00BB68134343F0BF6343F40033BB60044AA1
:1012AC00BB68D36000BF1437BD4680BC704700BF1D
:1012BC0000ED00E080B400AF044BDB681B0A03F0C8
:1012CC0007031846BD4680BC704700BF00ED00E028
:1012DC0080B483B000AF0346FB7197F90730002B45
:1012EC000BDBFB7903F01F02064997F907305B090A
:1012FC00012000FA02F241F8232000BF0C37BD4652
:10130C0080BC704700E100E080B483B000AF0346BE
:10131C003960FB7197F90730002B0ADB3B68DAB2B6
:10132C000C4997F907301201D2B20B4483F8002311
:10133C000AE03B68DAB20849FB7903F00F03043B7F
:10134C001201D2B20B441A7600BF0C37BD4680BCDA
:10135C00704700BF00E100E000ED00E080B489B010
:10136C0000AFF860B9607A60FB6803F00703FB61BB
:10137C00FB69C3F10703042B28BF0423BB61FB6982
:10138C000433062B02D9FB69033B00E000237B618D
:10139C004FF0FF32BB6902FA03F3DA43BB681A4021
:1013AC007B699A404FF0FF317B6901FA03F3D94313
:1013BC007B680B40134318462437BD4680BC7047EE
:1013CC0080B582B000AF78607B68013BB3F1807F61
:1013DC0001D301230FE00A4A7B68013B53600F21C4
:1013EC004FF0FF30FFF790FF054B00229A60044B43
:1013FC0007221A60002318460837BD4680BD00BF7F
:10140C0010E000E080B582B000AF78607868FFF73C
:10141C002DFF00BF0837BD4680BD80B586B000AF3C
:10142C000346B9607A60FB7300237B61FFF742FFD0
:10143C0078617A68B9687869FFF790FF024697F986
:10144C000F3011461846FFF75FFF00BF1837BD4637
:10145C0080BD80B582B000AF0346FB7197F90730B1
:10146C001846FFF735FF00BF0837BD4680BD80B575
:10147C0082B000AF78607868FFF7A2FF0346184689
:10148C000837BD4680BD80B485B000AF78600023BE
:10149C00FB737B6893F82130022B08D07B68042205
:1014AC009A637B68002283F82020012320E07B686C
:1014BC001B681A687B681B6822F00E021A607B6836
:1014CC001B681A687B681B6822F001021A607B6833
:1014DC001A6C7B68DB6B012101FA02F25A607B68A3
:1014EC00012283F821207B68002283F82020FB7BDB
:1014FC0018461437BD4680BC7047000080B584B0D8
:10150C0000AF78600023FB737B6893F82130022BCB
:10151C0005D07B6804229A630123FB7351E07B683E
:10152C001B681A687B681B6822F00E021A607B68C5
:10153C001B681A687B681B6822F001021A607B68C2
:10154C001B68224A934229D07B681B68204A93422D
:10155C0022D07B681B681F4A93421AD07B681B6899
:10156C001D4A934212D07B681B681C4A93420AD0D6
:10157C007B681B681A4A934202D14FF480130EE029
:10158C004FF080730BE04FF4803308E04FF480533E
:10159C0005E04FF4807302E0102300E00123114AB0
:1015AC0053607B68012283F821207B68002283F83A
:1015BC0020207B685B6B002B03D07B685B6B7868AF
:1015CC009847FB7B18461037BD4680BD080002408B
:1015DC001C0002403000024044000240580002400F
:1015EC006C0002400000024080B48BB000AF786009
:1015FC00396000237B6200233B6269E101227B6A34
:10160C0002FA03F3FB613B681B68FA691340BB6188
:10161C00BA69FB699A4240F058813B685B689A4A08
:10162C0093425ED0984A934275D8984A934258D0C8
:10163C00964A93426FD8964A934252D0944A934218
:10164C0069D8944A93424CD0924A934263D8924AB6
:10165C00934246D0904A93425DD8122B2AD8122B33
:10166C0059D801A252F823F0EF160008C916000849
:10167C00DB1600081D1700082317000823170008A5
:10168C002317000823170008231700082317000846
:10169C002317000823170008231700082317000836
:1016AC00231700082317000823170008D116000879
:1016BC00E5160008794A934213D02CE03B68DB68AE
:1016CC003B6229E03B68DB6804333B6224E03B6807
:1016DC00DB6808333B621FE03B68DB680C333B6222
:1016EC001AE03B689B68002B02D104233B6213E099
:1016FC003B689B68012B05D108233B627B68FA6928
:10170C001A6109E008233B627B68FA695A6103E0BD
:10171C0000233B6200E000BFBB69FF2B01D87B6854
:10172C0001E07B6804337B61BB69FF2B02D87B6AC9
:10173C009B0002E07B6A083B9B003B617B691A685B
:10174C000F213B6901FA03F3DB431A40396A3B6909
:10175C0001FA03F31A437B691A603B685B6803F078
:10176C008053002B00F0B1804D4B9B694C4A43F0E9
:10177C00010393614A4B9B6903F00103BB60BB6897
:10178C00484A7B6A9B08023352F82330FB607B6A21
:10179C0003F003039B000F2202FA03F3DB43FA6806
:1017AC001340FB607B68404A934213D07B683F4AEE
:1017BC0093420DD07B683E4A934207D07B683D4AEA
:1017CC00934201D1032306E0042304E0022302E048
:1017DC00012300E000237A6A02F003029200934096
:1017EC00FA681343FB602F497B6A9B080233FA6843
:1017FC0041F823203B685B6803F48033002B06D050
:10180C002D4B1A682C49BB6913430B6006E02A4B1D
:10181C001A68BB69DB43284913400B603B685B6863
:10182C0003F40033002B06D0234B5A682249BB69C2
:10183C0013434B6006E0204B5A68BB69DB431E49DF
:10184C0013404B603B685B6803F48013002B06D09D
:10185C00194B9A681849BB6913438B6006E0164B09
:10186C009A68BB69DB43144913408B603B685B6827
:10187C0003F40013002B21D00F4BDA680E49BB691F
:10188C001343CB6021E000BF000032100000311088
:10189C000000221000002110000012100000111096
:1018AC00001002400000014000080140000C014003
:1018BC000010014000140140000401400B4BDA6899
:1018CC00BB69DB4309491340CB607B6A01337B6204
:1018DC003B681A687B6A22FA03F3002B7FF48EAE06
:1018EC0000BF00BF2C37BD4680BC704700040140D0
:1018FC0080B485B000AF78600B467B807B689A68BB
:10190C007B881340002B02D00123FB7301E00023E2
:10191C00FB73FB7B18461437BD4680BC704780B404
:10192C0083B000AF78600B467B8013467B707B786E
:10193C00002B03D07A887B681A6103E07B881A0439
:10194C007B681A6100BF0C37BD4680BC7047000035
:10195C0080B586B000AF78607B68002B01D1012385
:10196C0072E27B681B6803F00103002B00F0878098
:10197C00924B5B6803F00C03042B0CD08F4B5B6811
:10198C0003F00C03082B12D18C4B5B6803F48033EF
:10199C00B3F5803F0BD1894B1B6803F40033002B4C
:1019AC006CD07B685B68002B68D101234CE27B68B0
:1019BC005B68B3F5803F06D1804B1B687F4A43F4CC
:1019CC00803313602EE07B685B68002B0CD17B4B63
:1019DC001B687A4A23F480331360784B1B68774A70
:1019EC0023F4802313601DE07B685B68B3F5A02FA4
:1019FC000CD1724B1B68714A43F4802313606F4BFC
:101A0C001B686E4A43F4803313600BE06B4B1B680E
:101A1C006A4A23F480331360684B1B68674A23F4CB
:101A2C00802313607B685B68002B13D0FFF714FCDA
:101A3C00386108E0FFF710FC02463B69D31A642BAF
:101A4C0001D9032300E25D4B1B6803F40033002B28
:101A5C00F0D014E0FFF700FC386108E0FFF7FCFB66
:101A6C0002463B69D31A642B01D90323ECE1534B97
:101A7C001B6803F40033002BF0D100E000BF7B683F
:101A8C001B6803F00203002B63D04C4B5B6803F024
:101A9C000C03002B0BD0494B5B6803F00C03082B99
:101AAC001CD1464B5B6803F48033002B16D1434B9F
:101ABC001B6803F00203002B05D07B681B69012B0C
:101ACC0001D00123C0E13D4B1B6823F0F8027B6879
:101ADC005B69DB00394913430B603AE07B681B6997
:101AEC00002B20D0364B01221A60FFF7B5FB386172
:101AFC0008E0FFF7B1FB02463B69D31A022B01D970
:101B0C000323A1E12D4B1B6803F00203002BF0D043
:101B1C002A4B1B6823F0F8027B685B69DB002749C2
:101B2C0013430B6015E0264B00221A60FFF794FB61
:101B3C00386108E0FFF790FB02463B69D31A022B91
:101B4C0001D9032380E11D4B1B6803F00203002B1A
:101B5C00F0D17B681B6803F00803002B3AD07B683C
:101B6C009B69002B19D0174B01221A60FFF774FBED
:101B7C00386108E0FFF770FB02463B69D31A022B71
:101B8C0001D9032360E10D4B5B6A03F00203002BC8
:101B9C00F0D0012000F0D8FA1CE00A4B00221A60A9
:101BAC00FFF75AFB38610FE0FFF756FB02463B6923
:101BBC00D31A022B08D9032346E100BF00100240C0
:101BCC000000424280044242924B5B6A03F00203E3
:101BDC00002BE9D17B681B6803F00403002B00F099
:101BEC00A6800023FB758B4BDB6903F08053002B25
:101BFC000DD1884BDB69874A43F08053D361854B09
:101C0C00DB6903F08053BB60BB680123FB75824B1F
:101C1C001B6803F48073002B18D17F4B1B687E4A22
:101C2C0043F480731360FFF717FB386108E0FFF78C
:101C3C0013FB02463B69D31A642B01D9032303E13E
:101C4C00754B1B6803F48073002BF0D07B68DB684A
:101C5C00012B06D16F4B1B6A6E4A43F001031362D2
:101C6C002DE07B68DB68002B0CD16A4B1B6A694A40
:101C7C0023F001031362674B1B6A664A23F00403CB
:101C8C0013621CE07B68DB68052B0CD1614B1B6A73
:101C9C00604A43F0040313625E4B1B6A5D4A43F0D7
:101CAC00010313620BE05B4B1B6A5A4A23F00103DE
:101CBC001362584B1B6A574A23F0040313627B6868
:101CCC00DB68002B15D0FFF7C7FA38610AE0FFF785
:101CDC00C3FA02463B69D31A41F28832934201D9C6
:101CEC000323B1E04B4B1B6A03F00203002BEED035
:101CFC0014E0FFF7B1FA38610AE0FFF7ADFA0246DB
:101D0C003B69D31A41F28832934201D903239BE0F9
:101D1C00404B1B6A03F00203002BEED1FB7D012B21
:101D2C0005D13C4BDB693B4A23F08053D3617B6884
:101D3C00DB69002B00F08780364B5B6803F00C03EB
:101D4C00082B61D07B68DB69022B46D1334B002218
:101D5C001A60FFF781FA386108E0FFF77DFA024656
:101D6C003B69D31A022B01D903236DE0294B1B6865
:101D7C0003F00073002BF0D17B681B6AB3F5803F36
:101D8C0008D1244B5B6823F400327B689B682149A3
:101D9C0013434B601F4B5B6823F474127B68196A06
:101DAC007B685B6A0B431B4913434B601B4B012243
:101DBC001A60FFF751FA386108E0FFF74DFA024656
:101DCC003B69D31A022B01D903233DE0114B1B684D
:101DDC0003F00073002BF0D035E0104B00221A609A
:101DEC00FFF73AFA386108E0FFF736FA02463B692A
:101DFC00D31A022B01D9032326E0064B1B6803F0F0
:101E0C000073002BF0D11EE07B68DB69012B07D13E
:101E1C00012319E0001002400070004060004242B3
:101E2C000B4B5B68FB60FB6803F480327B681B6ABE
:101E3C009A4206D1FB6803F470127B685B6A9A4283
:101E4C0001D0012300E0002318461837BD4680BDA1
:101E5C000010024080B584B000AF786039607B68B8
:101E6C00002B01D10123D0E06A4B1B6803F0070360
:101E7C003A689A4210D9674B1B6823F007026549F0
:101E8C003B6813430B60634B1B6803F007033A6812
:101E9C009A4201D00123B8E07B681B6803F002036F
:101EAC00002B20D07B681B6803F00403002B05D0AB
:101EBC00594B5B68584A43F4E06353607B681B687A
:101ECC0003F00803002B05D0534B5B68524A43F4D4
:101EDC0060535360504B5B6823F0F0027B689B6847
:101EEC004D4913434B607B681B6803F00103002BC7
:101EFC0040D07B685B68012B07D1474B1B6803F410
:101F0C000033002B15D101237FE07B685B68022B2B
:101F1C0007D1414B1B6803F00073002B09D101233F
:101F2C0073E03D4B1B6803F00203002B01D101232E
:101F3C006BE0394B5B6823F003027B685B683649C6
:101F4C0013434B60FFF788F9F8600AE0FFF784F958
:101F5C000246FB68D31A41F28832934201D903231B
:101F6C0053E02D4B5B6803F00C027B685B689B00B5
:101F7C009A42EBD1274B1B6803F007033A689A424D
:101F8C0010D2244B1B6823F0070222493B681343F1
:101F9C000B60204B1B6803F007033A689A4201D090
:101FAC00012332E07B681B6803F00403002B08D08C
:101FBC00194B5B6823F4E0627B68DB6816491343BA
:101FCC004B607B681B6803F00803002B09D0124B95
:101FDC005B6823F460527B681B69DB000E4913437A
:101FEC004B6000F021F802460B4B5B681B0903F0B9
:101FFC000F030A49CB5C22FA03F3094A1360094B1D
:10200C001B681846FFF7E6F8002318461037BD4644
:10201C0080BD00BF00200240001002408034000848
:10202C005C0000206000002090B48AB000AF294B07
:10203C003C1D0FCB84E80F0040F201233B800023B2
:10204C00FB610023BB6100237B6200237B610023C7
:10205C003B62214B5B68FB61FB6903F00C03042BB7
:10206C0002D0082B03D02BE01C4B3B622BE0FB690E
:10207C009B0C03F00F0328333B4413F8243C7B6187
:10208C00FB6903F48033002B12D0134B5B685B0CA1
:10209C0003F0010328333B4413F8283CBB617B69F4
:1020AC000E4A03FB02F2BB69B2FBF3F37B6204E062
:1020BC007B690B4A02FB03F37B627B6A3B6202E0A7
:1020CC00064B3B6200BF3B6A18462837BD4690BCA6
:1020DC00704700BF703400080010024000127A00F4
:1020EC0000093D0080B400AF024B1B681846BD468A
:1020FC0080BC70475C00002080B500AFFFF7F2FF9A
:10210C000246054B5B681B0A03F007030349CB5CD3
:10211C0022FA03F3184680BD0010024090340008E8
:10212C0080B500AFFFF7DEFF0246054B5B68DB0AAC
:10213C0003F007030349CB5C22FA03F3184680BD76
:10214C00001002409034000880B485B000AF786075
:10215C000A4B1B680A4AA2FB03235B0A7A6802FB40
:10216C0003F3FB6000BFFB685A1EFA60002BF9D129
:10217C0000BF00BF1437BD4680BC70475C00002018
:10218C00D34D621080B582B000AF78607B68002BB5
:10219C0001D1012341E07B6893F83D30DBB2002B89
:1021AC0006D17B68002283F83C207868FEF7D6FEC7
:1021BC007B68022283F83D207B681A687B680433B5
:1021CC001946104600F070FA7B68012283F846200D
:1021DC007B68012283F83E207B68012283F83F2034
:1021EC007B68012283F840207B68012283F8412020
:1021FC007B68012283F842207B68012283F843200C
:10220C007B68012283F844207B68012283F84520F7
:10221C007B68012283F83D20002318460837BD4611
:10222C0080BD000080B485B000AF78607B6893F807
:10223C003D30DBB2012B01D001233AE07B68022256
:10224C0083F83D207B681B68DA687B681B6842F06A
:10225C000102DA607B681B68184A93420ED07B68D7
:10226C001B68B3F1804F09D07B681B68144A9342FA
:10227C0004D07B681B68134A934211D17B681B689E
:10228C009B6803F00703FB60FB68062B10D07B6890
:10229C001B681A687B681B6842F001021A6007E031
:1022AC007B681B681A687B681B6842F001021A6025
:1022BC00002318461437BD4680BC7047002C0140E3
:1022CC00000400400008004080B582B000AF786088
:1022DC007B681B681B6903F00203022B22D17B680D
:1022EC001B68DB6803F00203022B1BD17B681B68A5
:1022FC006FF002021A617B6801221A777B681B68F7
:10230C009B6903F00303002B03D0786800F0B1F94C
:10231C0005E0786800F0A4F9786800F0B3F97B6800
:10232C0000221A777B681B681B6903F00403042BDB
:10233C0022D17B681B68DB6803F00403042B1BD1E0
:10234C007B681B686FF004021A617B6802221A77A3
:10235C007B681B689B6903F44073002B03D078687F
:10236C0000F087F905E0786800F07AF9786800F0F9
:10237C0089F97B6800221A777B681B681B6903F05C
:10238C000803082B22D17B681B68DB6803F0080369
:10239C00082B1BD17B681B686FF008021A617B68E5
:1023AC0004221A777B681B68DB6903F00303002B9C
:1023BC0003D0786800F05DF905E0786800F050F91A
:1023CC00786800F05FF97B6800221A777B681B68DD
:1023DC001B6903F01003102B22D17B681B68DB6890
:1023EC0003F01003102B1BD17B681B686FF01002DD
:1023FC001A617B6808221A777B681B68DB6903F417
:10240C004073002B03D0786800F033F905E078684E
:10241C0000F026F9786800F035F97B6800221A770D
:10242C007B681B681B6903F00103012B0ED17B68D1
:10243C001B68DB6803F00103012B07D17B681B6869
:10244C006FF001021A617868FEF736FD7B681B6835
:10245C001B6903F08003802B0ED17B681B68DB6843
:10246C0003F08003802B07D17B681B686FF0800220
:10247C001A61786800F077FA7B681B681B6903F0B7
:10248C004003402B0ED17B681B68DB6803F04003D4
:10249C00402B07D17B681B686FF040021A6178688B
:1024AC0000F0F9F87B681B681B6903F02003202BF4
:1024BC000ED17B681B68DB6803F02003202B07D14F
:1024CC007B681B686FF020021A61786800F042FA92
:1024DC0000BF0837BD4680BD80B584B000AF7860C2
:1024EC0039607B6893F83C30012B01D10223B3E0B7
:1024FC007B68012283F83C207B68022283F83D2014
:10250C007B681B689B68FB60FB6823F07703FB60B0
:10251C00FB6823F47F43FB607B681B68FA689A6056
:10252C003B681B68B3F5005F3ED0B3F5005F00F26B
:10253C008780B3F5805F00F08580B3F5805F7FD82E
:10254C00702B1AD0702B7BD8602B50D0602B77D887
:10255C00502B3CD0502B73D8402B58D0402B6FD8DD
:10256C00302B64D0302B6BD8202B60D0202B67D82D
:10257C00002B5CD0102B5AD062E07B6818683B684B
:10258C0099683B685A683B68DB6800F066F97B68C1
:10259C001B689B68FB60FB6843F07703FB607B6800
:1025AC001B68FA689A604EE07B6818683B6899680B
:1025BC003B685A683B68DB6800F04FF97B681B6826
:1025CC009A687B681B6842F480429A603BE07B68A7
:1025DC0018683B6859683B68DB681A4600F0C6F817
:1025EC007B681B685021184600F01DF92BE07B68B6
:1025FC0018683B6859683B68DB681A4600F0E4F8D9
:10260C007B681B686021184600F00DF91BE07B68A5
:10261C0018683B6859683B68DB681A4600F0A6F8F6
:10262C007B681B684021184600F0FDF80BE07B68C6
:10263C001A683B681B681946104600F0F4F802E073
:10264C0000BF00E000BF7B68012283F83D207B685F
:10265C00002283F83C20002318461037BD4680BD6D
:10266C0080B483B000AF786000BF0C37BD4680BC2F
:10267C00704780B483B000AF786000BF0C37BD46A4
:10268C0080BC704780B483B000AF786000BF0C375B
:10269C00BD4680BC704780B483B000AF786000BF8B
:1026AC000C37BD4680BC704780B485B000AF7860F5
:1026BC0039607B681B68FB607B68294A93420BD0AE
:1026CC007B68B3F1804F07D07B68264A934203D0D6
:1026DC007B68254A934208D1FB6823F07003FB60AA
:1026EC003B685B68FA681343FB607B681C4A934247
:1026FC000BD07B68B3F1804F07D07B68194A9342AB
:10270C0003D07B68184A934208D1FB6823F44073CA
:10271C00FB603B68DB68FA681343FB60FB6823F0E3
:10272C0080023B685B691343FB607B68FA681A6044
:10273C003B689A687B68DA623B681A687B689A62C5
:10274C007B68074A934203D13B681A697B681A631A
:10275C007B6801225A6100BF1437BD4680BC7047AC
:10276C00002C0140000400400008004080B487B0F9
:10277C0000AFF860B9607A60FB681B6A7B61FB682C
:10278C001B6A23F00102FB681A62FB689B693B61C0
:10279C003B6923F0F0033B617B681B013A691343EF
:1027AC003B617B6923F00A037B617A69BB68134345
:1027BC007B61FB683A699A61FB687A691A6200BFAF
:1027CC001C37BD4680BC704780B487B000AFF86042
:1027DC00B9607A60FB681B6A23F01002FB681A620E
:1027EC00FB689B697B61FB681B6A3B617B6923F41B
:1027FC0070437B617B681B037A6913437B613B6984
:10280C0023F0A0033B61BB681B013A6913433B6196
:10281C00FB687A699A61FB683A691A6200BF1C37D7
:10282C00BD4680BC704780B485B000AF786039601D
:10283C007B689B68FB60FB6823F07003FB603A6865
:10284C00FB68134343F00703FB607B68FA689A60EC
:10285C0000BF1437BD4680BC704780B487B000AF52
:10286C00F860B9607A603B60FB689B687B617B6950
:10287C0023F47F437B613B681A027B681A43BB6875
:10288C0013437A6913437B61FB687A699A6000BFD2
:10289C001C37BD4680BC704780B485B000AF7860F3
:1028AC0039607B6893F83C30012B01D1022346E060
:1028BC007B68012283F83C207B68022283F83D2050
:1028CC007B681B685B68FB607B681B689B68BB60F4
:1028DC00FB6823F07003FB603B681B68FA681343CA
:1028EC00FB607B681B68FA685A607B681B68164A39
:1028FC0093420ED07B681B68B3F1804F09D07B6884
:10290C001B68124A934204D07B681B68104A93429E
:10291C000CD1BB6823F08003BB603B685B68BA6872
:10292C001343BB607B681B68BA689A607B680122A2
:10293C0083F83D207B68002283F83C200023184656
:10294C001437BD4680BC7047002C01400004004089
:10295C000008004080B483B000AF786000BF0C3733
:10296C00BD4680BC704780B483B000AF786000BFB8
:10297C000C37BD4680BC704780B582B000AF786024
:10298C007B68002B01D101233FE07B6893F83D303D
:10299C00DBB2002B06D17B68002283F83C207868E0
:1029AC00FEF700FB7B68242283F83D207B681B68C4
:1029BC00DA687B681B6822F40052DA60786800F0F1
:1029CC0085FC7B681B681A697B681B6822F4904243
:1029DC001A617B681B685A697B681B6822F02A02A3
:1029EC005A617B681B68DA687B681B6842F400528A
:1029FC00DA607B6800221A647B68202283F83D2011
:102A0C007B68202283F83E20002318460837BD46F9
:102A1C0080BD80B58AB002AFF860B9603B601346E8
:102A2C00FB8000237B61FB6893F83D30DBB2202BED
:102A3C007CD1BB68002B02D0FB88002B01D1012379
:102A4C0075E0FB6893F83C30012B01D102236EE05A
:102A5C00FB68012283F83C20FB6800221A64FB68A7
:102A6C00212283F83D20FEF7F7FB7861FB68FA889A
:102A7C009A84FB68FA88DA84FB689B68B3F5805FFC
:102A8C0008D1FB681B69002B04D10023FB61BB68D8
:102A9C00BB6103E0BB68FB610023BB61FB680022E8
:102AAC0083F83C202AE03B6800937B69002280215C
:102ABC00F86800F038FA0346002B01D0032336E007
:102ACC00FB69002B0BD1BB691B881A46FB681B6882
:102ADC00C2F308025A60BB690233BB6107E0FB69B1
:102AEC001A78FB681B685A60FB690133FB61FB6851
:102AFC00DB8C9BB2013B9AB2FB68DA84FB68DB8C03
:102B0C009BB2002BCFD13B6800937B690022402104
:102B1C00F86800F008FA0346002B01D0032306E006
:102B2C00FB68202283F83D20002300E00223184696
:102B3C002037BD4680BD80B584B000AFF860B96069
:102B4C001346FB80FB6893F83E30DBB2202B1DD183
:102B5C00BB68002B02D0FB88002B01D1012316E0AF
:102B6C00FB6893F83C30012B01D102230FE0FB688A
:102B7C00012283F83C20FB6800221A63FB881A466A
:102B8C00B968F86800F019FA034600E00223184609
:102B9C001037BD4680BD000080B58AB000AF7860AC
:102BAC007B681B681B687B627B681B68DB683B620D
:102BBC007B681B685B69FB610023BB6100237B6145
:102BCC007B6A03F00F03BB61BB69002B0DD17B6AE1
:102BDC0003F02003002B08D03B6A03F02003002BEA
:102BEC0003D0786800F0C9FA7BE1BB69002B00F0D8
:102BFC00B180FB6903F00103002B05D13B6A03F4A0
:102C0C009073002B00F0A6807B6A03F00103002B6D
:102C1C000AD03B6A03F48073002B05D07B681B6CD5
:102C2C0043F001027B681A647B6A03F00403002BF7
:102C3C000AD0FB6903F00103002B05D07B681B6CE9
:102C4C0043F002027B681A647B6A03F00203002BD8
:102C5C000AD0FB6903F00103002B05D07B681B6CC9
:102C6C0043F004027B681A647B6A03F00803002BB0
:102C7C000FD03B6A03F02003002B04D1FB6903F057
:102C8C000103002B05D07B681B6C43F008027B68AA
:102C9C001A647B681B6C002B00F01E817B6A03F0AE
:102CAC002003002B07D03B6A03F02003002B02D03B
:102CBC00786800F062FA7B681B685B6903F040037C
:102CCC00002B14BF01230023DBB27B617B681B6CE0
:102CDC0003F00803002B02D17B69002B31D07868FC
:102CEC0000F0A4F97B681B685B6903F04003002BC0
:102CFC0023D07B681B685A697B681B6822F04002F2
:102D0C005A617B689B6B002B13D07B689B6B764A5C
:102D1C005A637B689B6B1846FEF7F0FB0346002B4F
:102D2C0016D07B689B6B5B6B7A68926B10469847EE
:102D3C000EE0786800F0E3F80AE0786800F0DFF85D
:102D4C0006E0786800F0DBF87B6800221A64C3E0C8
:102D5C0000BFC1E07B681B6B012B40F0A1807B6A3C
:102D6C0003F01003002B00F09B803B6A03F0100370
:102D7C00002B00F095800023FB607B681B681B68B0
:102D8C00FB607B681B685B68FB60FB687B681B688F
:102D9C005B6903F04003002B4ED07B689B6B1B6878
:102DAC005B683B823B8A002B00F098807B689B8D94
:102DBC003A8A9A4280F092807B683A8ADA857B68FC
:102DCC009B6B9B69202B2BD07B681B68DA687B681C
:102DDC001B6822F48072DA607B681B685A697B6816
:102DEC001B6822F001025A617B681B685A697B6878
:102DFC001B6822F040025A617B68202283F83E2037
:102E0C007B6800221A637B681B68DA687B681B6826
:102E1C0022F01002DA607B689B6B1846FEF733FBDE
:102E2C007B689A8D7B68DB8D9BB2D31A9BB219465B
:102E3C00786800F06DF851E07B689A8D7B68DB8DCB
:102E4C009BB2D31A7B827B68DB8D9BB2002B47D065
:102E5C007B8A002B44D07B681B68DA687B681B6814
:102E6C0022F49072DA607B681B685A697B681B6875
:102E7C0022F001025A617B68202283F83E207B6895
:102E8C0000221A637B681B68DA687B681B6822F077
:102E9C001002DA607B8A1946786800F039F81FE076
:102EAC007B6A03F08003002B08D03B6A03F080039D
:102EBC00002B03D0786800F0F9F812E07B6A03F07D
:102ECC004003002B0DD03B6A03F04003002B08D0CD
:102EDC00786800F03AF904E000BF02E000BF00E0BF
:102EEC0000BF2837BD4680BD9130000880B483B048
:102EFC0000AF786000BF0C37BD4680BC704780B413
:102F0C0083B000AF786000BF0C37BD4680BC704703
:102F1C0080B483B000AF78600B467B8000BF0C3769
:102F2C00BD4680BC704780B584B000AFF860B96016
:102F3C003B601346FB712CE0BB69B3F1FF3F28D01B
:102F4C00BB69002B07D0FEF787F902463B68D31A02
:102F5C00BA699A421DD2FB681B68DA68FB681B6869
:102F6C0022F4D072DA60FB681B685A69FB681B6834
:102F7C0022F001025A61FB68202283F83D20FB6895
:102F8C00202283F83E20FB68002283F83C20032398
:102F9C000FE0FB681B681A68BB681340BA689A425A
:102FAC000CBF01230023DBB21A46FB799A42C3D033
:102FBC00002318461037BD4680BD80B485B000AFE5
:102FCC00F860B9601346FB80FB68BA689A62FB68CC
:102FDC00FA889A85FB68FA88DA85FB6800221A64FD
:102FEC00FB68222283F83E20FB68002283F83C20F9
:102FFC00FB681B68DA68FB681B6842F48072DA6055
:10300C00FB681B685A69FB681B6842F001025A6135
:10301C00FB681B68DA68FB681B6842F02002DA6008
:10302C00002318461437BD4680BC704780B483B06B
:10303C0000AF78607B681B68DA687B681B6822F4D9
:10304C009072DA607B681B685A697B681B6822F097
:10305C0001025A617B681B6B012B07D17B681B68D3
:10306C00DA687B681B6822F01002DA607B68202229
:10307C0083F83E207B6800221A6300BF0C37BD46E4
:10308C0080BC704780B584B000AF78607B685B6AA9
:10309C00FB60FB680022DA85FB680022DA84F868A2
:1030AC00FFF72DFF00BF1037BD4680BD80B485B043
:1030BC0000AF78607B6893F83D30DBB2212B3ED1BA
:1030CC007B689B68B3F5805F14D17B681B69002B10
:1030DC0010D17B681B6AFB60FB681B881A467B68F7
:1030EC001B68C2F308025A607B681B6A9A1C7B68D7
:1030FC001A6208E07B681B6A591C7A6811621A789C
:10310C007B681B685A607B68DB8C9BB2013B9BB273
:10311C007A681946D184002B0FD17B681B68DA685A
:10312C007B681B6822F08002DA607B681B68DA68B7
:10313C007B681B6842F04002DA60002300E0022347
:10314C0018461437BD4680BC704780B582B000AFBE
:10315C0078607B681B68DA687B681B6822F0400229
:10316C00DA607B68202283F83D207868FFF7BEFE8A
:10317C00002318460837BD4680BD80B586B000AF29
:10318C0078607B6893F83E30DBB2222B40F099805C
:10319C007B689B68B3F5805F17D17B681B69002B3C
:1031AC0013D100237B617B689B6A3B617B681B6846
:1031BC005B689BB2C3F308039AB23B691A807B68C5
:1031CC009B6A9A1C7B689A6226E07B689B6A7B618F
:1031DC0000233B617B689B68B3F5805F07D07B68FD
:1031EC009B68002B0AD17B681B69002B06D17B687E
:1031FC001B685B68DAB27B691A7008E07B681B6835
:10320C005B68DBB203F07F03DAB27B691A707B6810
:10321C009B6A5A1C7B689A627B68DB8D9BB2013B74
:10322C009BB27A681946D185002B48D17B681B6804
:10323C00DA687B681B6822F02002DA607B681B6806
:10324C00DA687B681B6822F48072DA607B681B6822
:10325C005A697B681B6822F001025A617B68202244
:10326C0083F83E207B681B6B012B23D17B680022EB
:10327C001A637B681B68DA687B681B6822F0100293
:10328C00DA607B681B681B6803F01003102B0AD1F3
:10329C000023FB607B681B681B68FB607B681B68FA
:1032AC005B68FB60FB687B689B8D19467868FFF751
:1032BC002FFE02E07868FDF773FC002302E0002388
:1032CC0000E0022318461837BD4680BD80B584B097
:1032DC0000AF78607B681B681B6923F440517B68E6
:1032EC00DA687B681B680A431A617B689A687B689A
:1032FC001B691A437B685B691343BB607B681B6863
:10330C00DB6823F4B05323F00C037A681268B968B5
:10331C000B43D3607B681B685B6923F440717B684B
:10332C009A697B681B680A435A617B681B682C4A44
:10333C00934203D1FEF7F4FEF86002E0FEF7DCFEE8
:10334C00F860FA6813469B0013449A001A447B6891
:10335C005B689B00B2FBF3F3224AA2FB03235B09DD
:10336C001901FA6813469B0013449A001A447B68AF
:10337C005B689B00B2FBF3F21A4BA3FB02035B09E5
:10338C00642000FB03F3D31A1B013233154AA2FB52
:10339C0003235B0903F0F0031944FA6813469B00FE
:1033AC0013449A001A447B685B689B00B2FBF3F2EF
:1033BC000C4BA3FB02035B09642000FB03F3D31A41
:1033CC001B013233074AA2FB03235B0903F00F02F4
:1033DC007B681B680A449A6000BF1037BD4680BDED
:1033EC00003801401F85EB5170B500260C4D0D4C7B
:1033FC00641BA410A64209D100F022F800260A4D45
:10340C000A4C641BA410A64205D170BD55F8043BB0
:10341C0098470136EEE755F8043B98470136F2E73A
:10342C009834000898340008983400089C3400083C
:10343C0003460244934200D1704703F8011BF9E79D
:10344C00F8B500BFF8BC08BC9E467047F8B500BF85
:08345C00F8BC08BC9E46704755
:1034640088130000D0070000B80B00000203040515
:10347400060708090A0B0C0D0E0F101000000000BF
:103484000000000001020304060708090000000010
:04349400010203042A
:0434980031010008F6
:04349C000D01000816
:1034A0000008014000080140000C014000080140F4
:1034B00002001000010001000101010101010101F0
:1034C00001010101010101010100000009000000EA
:1034D000030000000600000000080140000C01404D
:1034E000000C0140000C0140000408002000100006
:1034F000000C014000080140000400010024F40019
:083500001000000001000000B2
:040000050800116975
:00000001FF
